:020000040800F2
:100000009008002099010008B12A0008C3250008C3
:1000100000000000000000000000000000000000E0
:10002000000000000000000000000000772C000825
:100030000000000000000000752C0008792C00086A
:10004000AB010008AB010008AB010008AB010008E0
:10005000AB010008AB010008AB010008AB010008D0
:1000600000000000AB010008AB0100080000000028
:10007000AB010008AB010008AB0100080000000064
:10008000AD2C0008AB01000800000000AB01000827
:1000900000000000AB010008AB010008AB01000844
:1000A00000000000AB010008AB010008AB01000834
:1000B0002932000800000000AB0100080000000029
:1000C00000F002F800F03DF80CA030C80838241801
:1000D0002D18A246671EAB4654465D46AC4201D180
:1000E00000F02FF87E460F3E0FCCB6460126334275
:1000F00000D0FB1AA246AB46334318471C3F000012
:100100003C3F00000023002400250026103A01D3C4
:1001100078C1FBD8520700D330C100D50B607047BF
:1001200010B5642902D100F08BF810BD782902D1F6
:1001300000F0BCF810BD002010BD1FB51FBD10B5EC
:1001400010BD01F009FA1146FFF7F7FF01F098FA28
:1001500001F021FA03B4FFF7F2FF03BC03F015F935
:1001600070B505460C46164602E00FCC0FC5103E92
:10017000102EFAD2082E02D303CC03C5083E042E5B
:1001800007D301CC01C5361F03E021782970641C18
:100190006D1C761EF9D270BD07488047074800479E
:1001A000FEE7FEE7FEE7FEE7FEE7FEE70448054957
:1001B000054A064B70470000812C0008C10000086A
:1001C000900200209008002090040020900400205D
:1001D000704700000FB4054910B503AA029801F05A
:1001E00027F910BC08BC04B0184700002801002003
:1001F00070B5044685690068C10601D5302600E067
:100200002026C00707D070BD62683046A1689047BD
:10021000206A401C20626D1EF6D570BD70B5044684
:1002200085690078C00707D170BD6268A168202089
:100230009047206A401C20626D1EF6D570BD0000FC
:10024000F7B5002575291068009914A611D0C0468D
:10025000C046002802DA404211A608E00099096869
:100260008A0701D50FA602E0490704D50EA601258D
:1002700001E0C046C046009F0024243704E001F09E
:10028000EBF830313955641C0028F8D12B46324642
:100290002146009801F073F8FEBD00000000000048
:1002A0002D0000002B0000002000000070B5044667
:1002B0000D4621461068C046C0462188090502D572
:1002C0000F4A7A4402E00E4A7A440E322346002155
:1002D000243305E006070009360F965D5E54491C7D
:1002E0000028F7D120780023000705D5702D03D012
:1002F000002901D002231132204601F040F870BDE0
:10030000B23B0000F3B50446002081B020622046D5
:10031000E1688847002872D0252802D06268A16869
:10032000ABE0594F00267F442046E16888472028EB
:10033000054608DB312D06D27819203800780028D0
:1003400001D00643F0E7B00701D504208643002022
:10035000E0610746A0612A2D0AD0284603F00EF876
:10036000002827D0B8000019303D0090856119E0C1
:100370000298BA00121902C8916102902046E16801
:100380008847012F054617D1E06900281FDA202091
:1003900086431CE000980A2180694843009940196F
:1003A000303888612046E1688847054602F0E6FF5C
:1003B0000028EFD1012F0AD02E2D08D12046E16868
:1003C00088470546202006437F1C022FC3DBA06917
:1003D000002803DA4042A06101200643F00701D063
:1003E000102086436C2D0BD0682D09D04C2D3CD0AD
:1003F0006A2D38D0742D38D07A2D36D016E040E0F2
:10040000E1682F4620468847B842054609D16C2F3F
:1004100029D001208002E16806432046884705462E
:1004200004E06C2F1DD0FF2001300643002D28D0A2
:1004300028464138192803D80120C0020643203538
:10044000204626602946029A1646FFF769FE0028D4
:1004500010D001280BD0F61DF008C0000830029023
:1004600055E74020E1E78020D5E70020D3E7361D9F
:1004700002964CE762682846A1689047206A401CB3
:1004800044E7206AFEBD0000763B0000002203091D
:100490008B422CD3030A8B4211D300239C464EE09F
:1004A00003460B433CD4002243088B4231D303095B
:1004B0008B421CD3030A8B4201D394463FE0C3090D
:1004C0008B4201D3CB01C01A524183098B4201D325
:1004D0008B01C01A524143098B4201D34B01C01A10
:1004E000524103098B4201D30B01C01A5241C30888
:1004F0008B4201D3CB00C01A524183088B4201D3F7
:100500008B00C01A524143088B4201D34B00C01AE2
:100510005241411A00D201465241104670475DE0F7
:10052000CA0F00D04942031000D34042534000227A
:100530009C4603098B422DD3030A8B4212D3FC2223
:10054000890112BA030A8B420CD3890192118B42A2
:1005500008D3890192118B4204D389013AD09211B8
:1005600000E08909C3098B4201D3CB01C01A524173
:1005700083098B4201D38B01C01A524143098B423C
:1005800001D34B01C01A524103098B4201D30B0125
:10059000C01A5241C3088B4201D3CB00C01A52414A
:1005A00083088B4201D38B00C01A5241D9D2430831
:1005B0008B4201D34B00C01A5241411A00D201466E
:1005C000634652415B10104601D34042002B00D5D8
:1005D0004942704763465B1000D3404201B500209A
:1005E000C046C04602BD7047704770470246C80FFC
:1005F000C00781434B0030B54B405B009B0D20D0C2
:100600001923DB06C91801231B05994220DB0324AB
:10061000A40704251346AB400BD3002B04D1EB06F3
:1006200013409B00E34204D4012464070023121901
:100630005941FF231B0599420BD2C9000143500FBA
:1006400009E0CB0204D501430803024305D0054865
:1006500030BDFF21C905084330BD08460721090503
:10066000884330BD0000C07FF0B50C46871A9C411E
:100670000D46861A9D4103D2C01BA141D219634188
:100680000D0D1F0DC94EEC1BAE435CD07F057F0DD9
:100690000026002F51D02D05AC46A943DD020123D1
:1006A000ED0A1B051D4320231B1B24D41746E740DE
:1006B000381871412F46E740CC199D402818314623
:1006C00061410C0D27D161449A4013D50023401C91
:1006D000594152000ED14008400001224B00520502
:1006E000D34207D305204007C14201D5B04900E0FD
:1006F000B0493046F0BD6B00002A00D001229A18A4
:100700001F23203C1B1B01D5002302E0E5402818D5
:1007100071410C0DD7D0012424050919C407CD0758
:1007200040084908E40F28436144002CD5D0002438
:10073000401C61419A40D0D1CDE76A05520DD9D114
:10074000C90FC907D5E79C4D4E00002801D00124F0
:1007500000E0002434195F00002A01D0012600E0E7
:100760000026BE19954FAC420CD8AE420AD8B4420E
:1007700006D001256D05EC42BCD010461946F0BDEF
:100780009942FCD000203946F0BDF0B51FB40C46AC
:100790000F46811A9F412546861A9D4106D20125A2
:1007A000ED076F40401ABC4152187B41210D1E0DD0
:1007B0008D1BAC467D4D8D437ED075056D0D7CD077
:1007C0000D05AE46AC431B031B0B794D52429D41B8
:1007D000202366469B1B14D31746F7403818002683
:1007E0000090744160462F460741E41900989D40EF
:1007F0002818664116D4714671189A4025D50123F0
:1008000020E093182A466A415200002B00D0521C67
:100810001E23203E9B1B002B61DD3541EE1728185F
:100820006641E8D5001876415B1C9A4000D3401C15
:100830004B05F3181524E34010D3002B52D071461A
:100840007118D30FC01802D3491C05B0F0BD0123A5
:10085000DB079A42F9D140084000F6E70122520531
:10086000B21801D1002853D00123CC0ADB029943EE
:10087000891E002A08D1020C03D0020C0004103992
:1008800002E00246002020390023550B05D1120258
:100890000823550B01D152010D23550C01D1120132
:1008A0001B1DD50C01D192009B1C150D01D15200CE
:1008B0005B1C2025EE1A01E02CE022E00546F54005
:1008C00015439840CA1AE10769181305C918002A88
:1008D000BBDA032040070818C10FC9070FE07146B3
:1008E0006118B2E7F10740080843711071444A00EB
:1008F0000CD001235B059A42A7D2C90FC90700207B
:10090000A3E74905490D26D1002001E00028F4D1D4
:1009100000219AE7284D6600002801D0012100E05F
:10092000002171185F00002A01D0012600E0002696
:10093000BE19224FA94210D8AE420ED8B14208D0FB
:1009400001256D05E94206D01946A802414010462E
:100950007BE79C4201D0214677E70020394674E7C7
:1009600010B50C465C4005D50124E4076340FFF751
:100970000CFF10BDFFF778FE10BD30B40C465C4094
:1009800004D50124E407634030BC6DE630BCFCE6CE
:1009900070B50124E40761400D465D4002D4FFF7C5
:1009A00063FE70BD6340FFF7F0FE70BDFF070000FF
:1009B0000000F0FF0000F07F0000E0FF0000F87F83
:1009C000F0B5F94D0C091E092C402E402F468BB076
:1009D000A7437DD0B543FCD0002E7AD0002CFCD0AC
:1009E0000D465D40ED0F2543AC1BFF25AD0464199A
:1009F0000894C502440DC9022143500DDC02044392
:100A00000120C00701430443D2020191200C110CC4
:100A100000958C46010423468B430A9161460904E4
:100A2000E24D8A430991010A7D44491980390978C8
:100A300005464D4301266D18F605751B6943C90C23
:100A4000640B891C4C436418B5012C1B250C2E0427
:100A5000B4434C434D43210C691889090591009D0D
:100A6000E90701D00121C90704912C4601996708C3
:100A7000CD072F434C08059DE10B4D432D0C294616
:100A80006646754302950D4645432E46029D7D1BE5
:100A9000B44100950D465D4301942C0C2F040D4686
:100AA0005543AE462D0C3D43029503947546049C78
:100AB0002D04641B049406D2029C039D641C002632
:100AC00075410395029401AC70CC009F7D1B01E041
:100AD0003EE162E1B4410904009507910194059952
:100AE000A4086143090C0C464443650BE7040C461B
:100AF00066467443A646640B3C43039502947446D1
:100B0000049DE4042C1B049406D2029C039D641CE7
:100B1000002675410395029401AC70CC009F7D1BAB
:100B2000B44101940C465C430095650FE7000C4608
:100B30005443A646640F3C43039502947446049DB7
:100B4000E4002C1B049406D2029C039D641C002626
:100B500075410395029401AC70CC009F7D1BB4419C
:100B6000AE09AF06049DC900AD092F43049DA4063C
:100B7000AD060495079D344369180791059DE10B67
:100B80004D432D0C29466646754302950D46454357
:100B90002E46029D7D1BB44100950D465D43019498
:100BA0002C0C2F040D465543AE462D0C3D430295AB
:100BB00003947546049C2D04641B049406D2029C85
:100BC000039D641C002675410395029401AC70CC12
:100BD000009F7D1BB44101948C050694079C890AF3
:100BE000611800950791019C0599A4086143090CBF
:100BF0000D464543680BEF040D46644665436C0B98
:100C00003C43049FED047D1BAC4602D20025641CCE
:100C10006841009E019D371B854108465843019558
:100C20000C46460FC5005443600F28436546E40058
:100C30002C1B02D20025401C6E41019D3F1AB5417C
:100C40002846BD09800628438446A009BF064E02F7
:100C50000699A40676180743079D002068410A9963
:100C6000079019430020099B00906046FF19134329
:100C70004041E20F64003A43A4460446D71A8C412F
:100C8000A04203D90120009020463A46C70F94188D
:100C900040416246D20F2243644664000494009CA3
:100CA000BE466400D71AA446044602978C41774694
:100CB000002F01D1A04204D96046401C8446029A0C
:100CC0002046C40FA64694184041049A0546D20F08
:100CD000224364466400D31A8D417146002901D134
:100CE000A84202D928461A46641C10430122002853
:100CF00000D0164361020020079B891904465C411D
:100D00000223002C02DB491813466441089DCE0AD9
:100D10002D145D194B056705E10A2C050D1908997D
:100D20003E43C9076940002B08D0934006D30022F8
:100D3000761C5141002B01D1760876001C4A002D0B
:100D400043DB154241D0AA433FD030460BB0F0BD43
:100D500006180D464D41174C7642AC411AD39518F2
:100D60001C465C41134A6D42A24113D30122520535
:100D70004C00D4420AD15C00D4420BD04B4002D587
:100D800092021143E2E749004908DFE75940C90FE1
:100D9000C90718E000200849D8E7054801420DD1ED
:100DA0000342F7D0F2E700000000FF07853400009F
:100DB0000000F07F0000E0FF0000F87F114859407C
:100DC0000143C01241400020C0E70123089A9B065E
:100DD0009A4205DC032252078918C90FC907B5E7F3
:100DE000052252078918074A1143D2125140ADE734
:100DF00070B515461C4602460B4628462146FFF7AD
:100E0000DFFD70BDFFFFFF7F1F22030C02D10F2209
:100E1000000402D0030E03D004E000200146704716
:100E20000002083A030F01D10001121F830F01D104
:100E30008000921E002801DB4000521E120551184E
:100E40004205C012411810467047C10FC90700D0B3
:100E50004042012292071143D6E701218907D3E7D7
:100E6000F0B58B4C0F09254689B0BD437BD01D09D9
:100E70002646AE43FAD00E465E402740F60F3E436C
:100E8000254071D024012142FBD0FF24AD19A404D8
:100E90002D1B039501252D05DB02DB0AC9022B431F
:100EA000C90A29431E010901040F130F050121433B
:100EB0001701880B820391432D098C46A90B1E4311
:100EC0008A039543B30B9A0396433F09BA0B9403E5
:100ED000A74302962E467E430497B6464E19D7196D
:100EE0000C460196544305977E43371B7646BF1B3D
:100EF0003601B646BE0B361900967646BC04371945
:100F0000009C01D3641C00946400002F01D00126D2
:100F10003443029E049F754366467E4304967600E2
:100F200034196E0034190094029C019E1C1966430A
:100F3000751BAE46069465464519059C05956C43A0
:100F4000594375460891691A0191049E014651431F
:100F5000A41B0491611A009C0791E10605D0610968
:100F60000122114302E072E06EE06109089D002752
:100F70002C0A2D066918049D7C412A0A2D06691841
:100F8000019D6241AC0DAD026D185441079A910D5F
:100F9000920255196141029A644658435443069B94
:100FA000059A5A43121A131B9A0E9B015B187A4139
:100FB000010B0005C3185141220A200644195A4169
:100FC0009A4200D2491C01204002814203D31523DA
:100FD0000226F64302E014230326F6432020C51A16
:100FE000A9401746AF40DA400A4320460399D8404B
:100FF0000914731819055118039A3843D207514040
:10100000AC4009D00122944006D30022401C51413B
:10101000002C01D1400840001E4A934212D3012205
:1010200003989206904207DB0520400709181A48EA
:101030000143C012414004E0032040070818C10FDB
:10104000C907002009B0F0BD0020F107FAE7051834
:101050000C464C4111486D42A04115D394181A46D4
:101060005A410E48644290410ED301204A00400587
:10107000824209D35A00824206D35940C90F084A16
:10108000C90700201143DDE700200649DAE7000028
:101090000000FF07FE070000FFFFFF7F0000E0FFEA
:1010A0000000F07F0000F87F70B505464800440D51
:1010B000124B0020002C0AD0634008D09A4206DA76
:1010C0006642B24203DD12054019514170BD002C49
:1010D00008D0002B09D0C90FC907002AF6DB084A3F
:1010E000114370BDC90FC90770BD28460A031043DC
:1010F00002D00020034970BD284670BDFF070000E4
:101100000000F07F0000F87F0121C905012341188C
:1011100042001B06D3185B0E0AD0C1100722D2066C
:10112000891840075242D14201D5520089187047B0
:10113000090208D50146002A03D0C10FC9070020C3
:10114000704710467047420202D0002002497047A3
:10115000072109050143F4E70000F87FF0B5FF25FA
:101160002D04C609C209FF2704462E400137CB09CA
:101170003E4348402A402B400746002A6BD0002BB4
:1011800069D0AA4267D0AB4265D0002800DA324667
:101190000125ED0529432C4309022002090AD21A30
:1011A0004B0C7F24E31A434C000A7C44E35C7D240F
:1011B0002404121914145B00A218884201D3521C93
:1011C00000E0400049420C465C4324115C43DB01D3
:1011D0006415E318040A5C43C502200D0C46444321
:1011E0006419250A5D432303EC0C0D466543000397
:1011F0000019EB184C42A34201D35B18401CD405E4
:101200002018002B07D05B00C91804D3401C00290C
:1012100001D1400840003F2189048A4209D3002AB5
:1012200008DC1106090F04D0032149074018C00F3C
:10123000C007F0BD01224100120689187F22520624
:101240009142F6D205214907C84201D59010F0BD60
:10125000FF20C005F0BD002F00DA32461648AA4232
:1012600007D2AB4205D21902090E17D0F80FC007FA
:10127000F0BDFF2563002D06AB42F9D84900A94215
:10128000F6D8AB4201D1A942F2D0A94201D1002146
:1012900001E061004908D0050843F0BD1102090EC4
:1012A000FBD0FF200243D005F0BD0A4601461046A0
:1012B00054E70000832D00000000C07F10B50146F8
:1012C0009E240002CA15A307002A02D01843002A50
:1012D00004DBA21A002A0CDDD04010BD1206120E4B
:1012E00001D140004008A21A03D4D0404042002857
:1012F000F3DDFF2248001206904201D9002010BD04
:10130000C817C043584010BD1F22030C02D10F2242
:1013100000041CD0030E01D10002083A030F01D1D2
:101320000001121F830F01D18000921E002801DBF3
:101330004000521ED2055118021251181922904035
:1013400004D3491C002801D14908490008467047C8
:10135000C10FC90700D04042012292071143D3E7D1
:1013600001218907D0E7704710B500F089F80068BF
:1013700010BD10B5044600F083F8046010BDFFB541
:1013800004460D4681B0243000902168880604D5BB
:101390001022E0699143216000E00120A84201DDB4
:1013A000471B00E000270498A1697A191018081A51
:1013B000A0612078C00602D42046FEF719FF00265F
:1013C00008E003986268A168805D9047206A401C2D
:1013D000761C206204988642F3DB2078C0060AD58A
:1013E0002046FEF705FF06E06268A16830209047BE
:1013F000206A401C206238467F1E0028F4DC07E08B
:1014000000986268A168405D9047206A401C206295
:1014100028466D1E0028F3DC2046FEF7FFFE2078EC
:10142000000602D5022005B0F0BD0120FBE7000058
:10143000084B70B50D467B4400F02BF80446284657
:1014400000F03AF8002802D00020C04370BD2046CA
:1014500070BD0000EB23000001468008081A020955
:101460001018020A1018020C1018C0088200121876
:101470005200891A01E0401C0A390A29FBD2704740
:10148000004870473002002001694A1C0261087858
:10149000704700B58FB00291002105910549019375
:1014A00079440391114604906846FEF72BFF0FB074
:1014B00000BD0000E5FFFFFFC068802108407047C5
:1014C000F8B5224C4E00069DA6420AD8A64201D18C
:1014D000002806D15E00A64203D8A6420AD1002AFF
:1014E00008D00D24240425422CD02946002000F0E9
:1014F0005AF8F8BD0C461C430CD4994202D0EFF3C5
:101500000080F8BD904202D0EFF30080F8BDEFF309
:101510000080F8BD09242407E5008B4206D0EFF3D4
:101520000080A043591A06D2284304E0101A05D3BC
:10153000EFF30080A04380F30088F8BDEFF3008054
:10154000A043F1E7009500F045F8F8BD0000E0FF8A
:1015500000487047300200207546FFF7F9FFAE469D
:10156000050069465346C008C000854618B020B53E
:10157000FEF71CFE60BC00274908B6460026C0C521
:10158000C0C5C0C5C0C5C0C5C0C5C0C5C0C5403D3B
:1015900049008D46704710B50446C046C0462046F7
:1015A000FEF7D8FD10BDC80212D54803400F002831
:1015B00004D0C803C043012188407047EFF3008086
:1015C0000001000903210907084380F300887047E0
:1015D0000020704710B500200249029A00F004F87C
:1015E00010BD00000000F87F10B50C461107090F70
:1015F000092904D00A290AD008290CD104E011468F
:101600000820FFF7D0FF06E0510606D501E051069D
:1016100001D50120C007214610BDD10607D5010123
:101620000909CC084907000E0006044309E0410FF0
:1016300020024907000A0143200E00061D22D14165
:1016400001430846E7E730B58C180278401C1307C1
:101650001B0F01D10378401C120906D10278401CEF
:1016600003E00578401C0D70491C5B1EF9D101E0B8
:101670000B70491C521EFBD1A142E6D3002030BDA5
:1016800010B50122D2060020074B810054585C504F
:10169000401CC0B23028F8D30120044940078860BC
:1016A00002F0CCF8002010BD0000002000ED00E0AA
:1016B00000B587B01422094902A8FEF751FD084879
:1016C000426B20210A434263406B0840019002A90B
:1016D000044800F00FFB07B000BD0000303E0008DA
:1016E000001002400014005000B587B014220949D0
:1016F00002A8FEF735FD0848426B20210A434263E9
:10170000406B0840019002A9044800F0F3FA07B0CA
:1017100000BD00001C3E00080010024000140050F4
:1017200070B5F92000F013F80446F82000F00FF827
:101730000546F72000F00BF80103280101432009BA
:10174000084370BD10B5D02000F001F810BD10B5F1
:10175000044600F06FF9EC2000F02EF900F0AEF92D
:10176000204600F029F900F0A9F900F063F9ED2016
:1017700000F022F900F0A2F9002000F0EDF8044694
:1017800000F07AF9204610BD10B501784278490181
:101790009200807811430143C9B2F52000F00EF8A1
:1017A00010BD10B54178027849019200807811434C
:1017B0000143C9B2F42000F001F810BD70B5054630
:1017C0000C4600F037F9EC2000F0F6F800F076F95E
:1017D000284600F0F1F800F071F9204600F0ECF82E
:1017E00000F06CF900F048F970BD000030B587B02A
:1017F0000021214CE26B012040040243E263E26BD2
:10180000024001921E481D4A0260E12252024260DB
:101810008160C160016181610C21416100F02AFE9B
:10182000616B012001436163616B01400191616B58
:1018300001436163616B0140019104240294022120
:101840000391049003200590069405252D0702A915
:10185000284600F04FFA08210291069402A9284672
:1018600000F048FA012200211C2000F02DFB1C2072
:1018700000F01EFB07B030BD0010024000440040E5
:101880008C01002010B50F4C00220221204600F0F0
:10189000C2FAFFF729FF00220121204600F0BBFA1F
:1018A000022000F0E3F901220221204600F0B3FA01
:1018B000022000F0DBF900220221204600F0ABFA02
:1018C00010BD00000014005010B586B014220E495F
:1018D00001A8FEF745FC0D48426B20210A434263F4
:1018E000406B084000900A4C01A9204600F002FA23
:1018F00001220221204600F08EFA012211462046E4
:1019000000F089FA06B010BD443E00080010024005
:101910000014005010B50F4C00220221204600F0A8
:101920007AFAFFF7E1FE01221146204600F073FA31
:10193000022000F09BF901220221204600F06BFA00
:10194000022000F093F900220221204600F063FA01
:1019500010BD000000140050F8B507460024FFF742
:10196000A7FE0025134E00220221304600F053FA54
:10197000022000F07BF901220221304600F04BFAF0
:101980006006040E0121304600F03EFA002801D026
:10199000641CE4B2022000F069F96D1CEDB2082D60
:1019A000E1D3002F03D0FFF76DFF2046F8BDFFF70E
:1019B000B1FFFAE70014005070B50546FFF794FE3A
:1019C0001B4E00220221304600F025FA022000F0D2
:1019D0004DF90024280608D501221146304600F0B2
:1019E0001AFA022000F042F907E0002201213046F5
:1019F00000F011FA022000F039F96806050E012204
:101A00000221304600F007FA042000F02FF90022EE
:101A10000221304600F0FFF9022000F027F9641C93
:101A2000E4B2082CD6D3022000F020F970BD0000EB
:101A30000014005010B5FFF757FE0E4C0122022192
:101A4000204600F0E8F901221146204600F0E3F9B3
:101A5000042000F00BF900220121204600F0DBF900
:101A6000042000F003F900220221204600F0D3F9FF
:101A700010BD00000014005010B5FFF735FE0E4CED
:101A800000220221204600F0C6F900220121204652
:101A900000F0C1F9042000F0E9F8012202212046FB
:101AA00000F0B9F901221146204600F0B4F90420F3
:101AB00000F0DCF810BD00000014005070B5FFF716
:101AC000F7FD134D01220221284600F0A4F90A2057
:101AD00000F0CCF801221146284600F09CF90A20BB
:101AE00000F0C4F80121284600F08EF9002807D044
:101AF000012400220221284600F08DF9204670BD05
:101B0000002400220221284600F085F9204670BDFD
:101B1000001400507CB58820FFF719FE0446892088
:101B2000FFF715FE00020019494C216808808A2041
:101B3000FFF70DFE05468B20FFF709FE0002216826
:101B4000401948808C20FFF702FE05468D20FFF7E4
:101B5000FEFD00022168401988808E20FFF7F7FD06
:101B600005468F20FFF7F3FD000221684019C88069
:101B70009020FFF7ECFD05469120FFF7E8FD0002FD
:101B80002168401908819220FFF7E1FD0546932066
:101B9000FFF7DDFD00022168401948819420FFF71E
:101BA000D6FD05469520FFF7D2FD000221684019B9
:101BB00088819620FFF7CBFD05469720FFF7C7FDEC
:101BC000000221684019C8819820FFF7C0FD054632
:101BD0009920FFF7BCFD00022168401908829A2075
:101BE000FFF7B5FD05469B20FFF7B1FD0002216818
:101BF000401948829C20FFF7AAFD05469D20FFF76B
:101C0000A6FD00022168401988829E20FFF79FFDF3
:101C100005469F20FFF79BFD000221684019C882FE
:101C2000B621E020FFF7CAFD03206A4610710121AA
:101C30005171907101A8FFF7B4FD00206A46107041
:101C40000421517090706846FFF79EFD7CBD000036
:101C50002C01002000B502467D23DB0002E018467F
:101C600000F004F8521E501CF9D100BD4821484331
:101C70000549486100208861052008610869C003A2
:101C8000FCD504200861704700E000E0FEE700009A
:101C900070B50024024620325178022903D0042175
:101CA0008163012422E001680B680E25AB430B60C1
:101CB00001680B685B085B000B600D4B0168994283
:101CC00001D1012107E00A4B1433994201D11021BF
:101CD00001E0FF210131064B083B596001215170A1
:101CE00000211170416B002900D08847204670BD4B
:101CF00008000240F0B500227CE001249440A44694
:101D00002340002B75D04C68022C01D0122C0CD132
:101D1000D408A40027183D6A5407E40E0F26A640F5
:101D2000B5430E69A6402E433E6206685500032463
:101D3000AC40A6430F79BF07BF0FAF4037430760E2
:101D40004E68012E05D0022E03D0112E01D0122E86
:101D50000ED18668A643CF68AF4037438760476897
:101D60006646B7430E79F606F60F96403E43466048
:101D7000C668A6438C68AC403443C4604C68E40039
:101D800037D595081E4CAD002F193D6E9407E40E13
:101D90000F26A640B54305263607B04201D10026DE
:101DA00005E0184EB04201D1012600E00226A6400F
:101DB0002E43134D3E66124E803634689C434F6866
:101DC000FF0300D51C43346074689C434F68BF0315
:101DD00000D51C4374602C689C434E68F60200D505
:101DE0001C432C606C689C434E68B60200D51C43B3
:101DF0006C60521C0B681C46D44000D07DE7F0BDDF
:101E000000180240000400500069084201D001207F
:101E1000704700207047002A01D0816170478162BD
:101E200070470000014880687047000030010020C2
:101E3000024881684268891881607047300100203B
:101E400010B50024002000F009F8002801D001247A
:101E500001E000F02BF8204610BD000070B50546EB
:101E60000024104E7168002919D07D20C000FEF7B3
:101E70000DFB01460C480068FEF708FB00F040F837
:101E8000002801D001240BE0042D06D200222946AF
:101E9000501E00F019F8356002E0012400E0012432
:101EA000204670BD300100203C010020704700003A
:101EB000002805DBC106C90E0120884001490860E1
:101EC0007047000000E100E010B501F0CBF910BD53
:101ED00001480068704700003C01002000B5FFF792
:101EE000F7FF054989681C22890A1140034A515CA1
:101EF000C906C90EC84000BD00100240583E000887
:101F000010B50949401E884201D9012010BD074C77
:101F100060610321081F01F0A5F90020A0610720DE
:101F20002061002010BD0000FFFFFF0000E000E086
:101F30007047704770B50446002C05D02546203503
:101F4000687F002802D006E0012070BD00202877BD
:101F5000204600F00AF802206877211D206800F072
:101F6000ADFE01206877002070BD70470168CB6826
:101F700001221343CB60006881684907490F062995
:101F800002D00168114301600020704770470000D3
:101F900070B50446206801690026C9438907634D6E
:101FA000002919DBC168C943890712D4F11E0161F8
:101FB0000120207720688069800703D02046FFF742
:101FC000E5FF05E0204600F0CDF8204600F09CF942
:101FD00026772868401C286020680169C9434907A2
:101FE0001BD4C168C943490714D40421C943016102
:101FF00002202077206880698005800F03D020466A
:10200000FFF7C4FF05E0204600F0ACF8204600F0E2
:102010007BF926772868401C286020680169C9433D
:1020200009071AD4C168C943090713D40821C94351
:102030000161042020772068C069800703D0204612
:10204000FFF7A4FF05E0204600F08CF8204600F0E2
:102050005BF926772868401C286020680169C9431D
:10206000C9061BD4C168C943C90614D41021C94389
:102070000161082020772068C0698005800F03D0A7
:102080002046FFF783FF05E0204600F06BF820466E
:1020900000F03AF926772868401C2860206801691A
:1020A000C943C9070BD1C168C943C90704D1891EF7
:1020B0000161204600F052F92868401C2860206821
:1020C0000169C94309060CD4C168C943090605D48E
:1020D0008021C94301612046FFF72AFF2868401C80
:1020E000286020680169C94349060CD4C168C94306
:1020F000490605D44021C9430161204600F02FF96B
:102100002868401C286020680169C94389060CD4EE
:10211000C168C943890605D42021C943016120460D
:10212000FFF707FF2868401C286070BD14010020DD
:1021300010B5022104462034617701680A6A084B11
:102140001A4207D10A6A9B101A4203D10A68520840
:1021500052000A6000F022F800206077207710BD5E
:1021600011110000704770B50446002C05D02546BB
:102170002035687F002802D006E0012070BD0020D5
:102180002877204600F00BF802206877211D206890
:1021900000F094FD01206877002070BD7047704703
:1021A00010B504460122206800F0C6FD0D482168E4
:1021B000814205D00C48814202D00C48814204D1B2
:1021C000486C0122D20310434864206881684907A3
:1021D000490F062903D00168012211430160002044
:1021E00010BD0000002C01400044014000480140A7
:1021F000F8B504460E4625462035287F01280DD027
:1022000001202877022068770427002A08D0042AB2
:1022100019D0082A2ED00C2A55D13EE00220F8BD54
:102220003146206800F096FD20688169082211433C
:10223000816120688169B94381612068816932695F
:10224000114381613FE03146206800F0C1FD206804
:1022500082690121C9020A438261206881690122E1
:1022600092029143816120688169326912021143AF
:10227000816128E03146206800F0EAFD2068C269EB
:1022800008210A43C2612068C169B943C16120685D
:10229000C16932691143C16115E03146206800F01F
:1022A00017FE2068C1690122D2021143C161206872
:1022B000C269012189028A43C2612068C169326909
:1022C00012021143C1610120687700202877F8BD10
:1022D00070B50446002C05D025462035687F0028BF
:1022E00002D006E0012070BD00202877204600F0D3
:1022F0000AF802206877211D206800F0DFFC012029
:102300006877002070BD70477047000010B5044624
:102310000122206800F010FD0D482168814205D09F
:102320000C48814202D00C48814204D1486C012201
:10233000D20310434864206881684907490F062981
:1023400003D00168012211430160002010BD00008C
:10235000002C014000440140004801407047704794
:102360007047000070B5044622681068D168526951
:1023700003071B0F002B07D1850605D58D0603D556
:10238000204600F049FE70BD002B60D0D307DB0F64
:10239000FF2521350D402B4359D0C30705D0CB0570
:1023A00003D5A36C01252B43A364430705D5D307AD
:1023B00003D0A36C02252B43A364830705D5D30761
:1023C00003D0A36C04252B43A364030705D5D207D0
:1023D00003D0A26C08231A43A264A26C002AD2D0B4
:1023E000800604D5880602D5204600F015FE206838
:1023F00040694006C00FA16C090701D4002820D015
:10240000204600F0EDFD20684169490615D5416977
:10241000402291434161206C00280AD01449416355
:10242000206CFFF735FC0028ADD0206C416B88474D
:1024300070BD2046FFF794FF70BD2046FFF790FF68
:1024400070BD2046FFF78CFF0020A06470BD02061F
:1024500005D50A0603D5204600F082FE70BD400671
:10246000FCD54806FAD5204600F0C9FD70BD000035
:10247000D12F0008F8B50446002C06D0254640357B
:1024800068790026002802D005E00120F8BD2E71F1
:10249000204600F026F8242068712068C1680127D2
:1024A0007F03B943C160204600F0F4FD206A002894
:1024B00002D0204600F074FD206801690122D2029A
:1024C000914301612068416908229143416120687C
:1024D000C1683943C160A66420206871A8710020DA
:1024E000F8BD70477047FFB583B004460E461546E9
:1024F000274640377879202802D0022007B0F0BD67
:10250000002E0AD0002D08D00120A16800038142CE
:1025100009D12069002802D005E00120EEE7F0078C
:1025200001D00120EAE73879012815D0012038715F
:102530000020A06421207871FFF774FC02902586AA
:1025400065860120A1680003814202D1206900282C
:1025500004D03546002618E00220CFE7002514E01D
:1025600006980090002280212046029B00F02AFE5F
:10257000002801D00320C1E7002D15D0287821685C
:102580006D1C4860608E401E6086608E0028E7D11A
:1025900006980090002240212046029B00F012FE87
:1025A000002808D00320A9E73088B61CC0052168A0
:1025B000C00D4860E6E720207871002038719DE763
:1025C0007047FEE710B50F4C002204212046FFF7AC
:1025D00022FC00F05BF9002201212046FFF71BFCE2
:1025E0000220FFF743FB012204212046FFF713FCE2
:1025F0000220FFF73BFB002204212046FFF70BFCE3
:1026000010BD00000004005010B586B014220E4921
:1026100001A8FDF7A5FD0D48426B02210A43426364
:10262000406B084000900A4C01A92046FFF762FB6E
:10263000012204212046FFF7EEFB0122114620462D
:10264000FFF7E9FB06B010BD083E0008001002408D
:102650000004005010B50F4C002204212046FFF763
:10266000DAFB00F013F9012211462046FFF7D3FBF5
:102670000220FFF7FBFA012204212046FFF7CBFBE3
:102680000220FFF7F3FA002204212046FFF7C3FBE4
:1026900010BD000000040050F8B50746002400F00B
:1026A000D9F80025134E002204213046FFF7B3FB72
:1026B0000220FFF7DBFA012204213046FFF7ABFBD3
:1026C0006006040E01213046FFF79EFB002801D072
:1026D000641CE4B20220FFF7C9FA6D1CEDB2082DAC
:1026E000E1D3002F03D0FFF76DFF2046F8BDFFF7C1
:1026F000B1FFFAE70004005070B5054600F0C6F8D7
:102700001B4E002204213046FFF785FB0220FFF715
:10271000ADFA0024280608D5012211463046FFF7FD
:102720007AFB0220FFF7A2FA07E0002201213046DF
:10273000FFF771FB0220FFF799FA6806050E0122E8
:1027400004213046FFF767FB0420FFF78FFA0022D1
:1027500004213046FFF75FFB0220FFF787FA641C75
:10276000E4B2082CD6D30220FFF780FA70BD000037
:102770000004005010B500F089F80E4C012204212D
:102780002046FFF748FB012211462046FFF743FB96
:102790000420FFF76BFA002201212046FFF73BFBE4
:1027A0000420FFF763FA002204212046FFF733FBE1
:1027B00010BD00000004005010B500F067F80E4C8A
:1027C000002204212046FFF726FB0022012120469B
:1027D000FFF721FB0420FFF749FA012204212046DC
:1027E000FFF719FB012211462046FFF714FB0420D6
:1027F000FFF73CFA10BD00000004005070B500F077
:1028000029F8134D012204212846FFF704FB0A2072
:10281000FFF72CFA012211462846FFF7FCFA0A209E
:10282000FFF724FA01212846FFF7EEFA002807D027
:102830000124002204212846FFF7EDFA204670BD4E
:102840000024002204212846FFF7E5FA204670BD47
:102850000004005000B587B01422094902A8FDF712
:102860007FFC0848426B02210A434263406B0840E8
:10287000019002A90448FFF73DFA07B000BD00002F
:10288000F43D0008001002400004005000B587B07D
:102890001422094902A8FDF763FC0848426B022193
:1028A0000A434263406B0840019002A90448FFF7C5
:1028B00021FA07B000BD0000E03D00080010024012
:1028C000000400507CB504460D4616466B460622B1
:1028D0003B21682000F090F8002811D16A46117859
:1028E00052780902114321806A469178D278090210
:1028F000114329806A4611795279090211433180C6
:102900007CBD7CB504460D4616466B460622432127
:10291000682000F071F8002811D16A4611785278C9
:102920000902114321806A469178D2780902114345
:1029300029806A46117952790902114331807CBDA0
:1029400008B56B4602224121682000F055F869461F
:10295000087849780002084300B2FEF776FA0022B0
:10296000074BFEF72DF8074A074BFDF7F9FFFDF778
:102970003DFE064901F074F9FEF7A0FC00B208BD67
:1029800000407540A4703D0AD74342400000C84251
:1029900010B5144C1248606013482060FFF734FEF5
:1029A0000021192000F05DF800211A2000F059F8EC
:1029B00008211B2000F055F800211C2000F051F8E0
:1029C00001216B2000F04DF800F06AFF074900205C
:1029D00008600749086007480068A060002010BD33
:1029E0000AD7A33C1801002048E17A3FF4000020F8
:1029F000F800002014010020F8B506460F461546E1
:102A00001C46FFF7B7FE7600F0B2FFF775FEFFF742
:102A1000F5FE002803D0FFF7CFFE0120F8BD3846B1
:102A2000FFF76AFEFFF7EAFEFFF7A4FE761CF0B29E
:102A3000FFF762FEFFF7E2FE08E0012D0CD0012057
:102A4000FFF72AFE20706D1EEDB2641C002DF4D13C
:102A5000FFF7B2FE0020F8BD0020FFF71DFE20703A
:102A6000F1E770B505460C46FFF784FED020FFF76E
:102A700043FEFFF7C3FE002806D0FFF79DFE64204B
:102A8000FFF7E8F8012070BD2846FFF735FEFFF795
:102A9000B5FE2046FFF730FEFFF7B0FE002803D05A
:102AA000FFF78AFE012070BDFFF786FE002070BD93
:102AB00070470000F0B5F1B06B48416B0122114343
:102AC0004163416B11400091416B022529434163F1
:102AD000416B29400091C16B2943C163C06B284001
:102AE000009020206C906F956D950D2070900520C2
:102AF0006CA90007FFF7FEF85C4E5C96002460941A
:102B00005E9463275F975D9461945CA8FFF712FA67
:102B10005CA8FFF70DFB6020559057945894322025
:102B200056905CA8FFF71FFB04215CA8FFF738FB59
:102B30005CA8FFF7CDFB042255A95CA8FFF758FB62
:102B400004215CA8FFF7E2FB1020509053955195AB
:102B50000D205490052050A90007FFF7CBF84096B0
:102B60004494429443974194459440A8FFF7E2F976
:102B700040A8FFF7DDFA602039903B943C94322066
:102B80003A9040A8FFF7EFFA082140A8FFF708FBAA
:102B900040A8FFF79DFB082239A940A8FFF728FBB2
:102BA000082140A8FFF7B2FB4020349037953595B7
:102BB00001203890052034A90007FFF79BF82496E0
:102BC0002894269427972594299424A8FFF7B2F9EE
:102BD00024A8FFF7ADFA60201D901F9420943220A6
:102BE0001E9024A8FFF7BFFA002124A8FFF7D8FA07
:102BF00024A8FFF76DFB00221DA924A8FFF7F8FA0F
:102C0000002124A8FFF782FB18951B951995012038
:102C10001C9018A91648FFF76DF808960C940A94B2
:102C20000B9709940D9408A8FFF784F908A8FFF7FB
:102C30007FFA60200190039404943220029008A847
:102C4000FFF791FA0C2108A8FFF7AAFA08A8FFF7E6
:102C50003FFB0C2201A908A8FFF7CAFA0C2108A81B
:102C6000FFF754FB71B0F0BD0010024000040040BB
:102C7000000400507047704710B5FFF7D9F810BD39
:102C800007484168074842680123120C12045B039D
:102C90001A43114341600449C00388607047000033
:102CA000000FFF1F0010024000ED00E010B50248C9
:102CB000FFF76EF910BD0000D801002070B5026862
:102CC000184C194EA04201D0B04204D170251346D1
:102CD000AB434A681A43154B154DA04208D0B04289
:102CE00006D0144EB04203D0984201D0A84204D17D
:102CF00003263602B243CE6832438026B2434E6981
:102D0000324302608A68C2620A688262A04203D0CB
:102D1000984201D0A84201D10969016301214161B2
:102D200070BD0000002C0140000400400044014040
:102D3000004801400020004010B5C906C90E01231B
:102D40008B40046A9C430462036A8A401343036213
:102D500010BD0000F0B5026A520852000262056A16
:102D6000436882697024A243920892000C6814435D
:102D7000022295438A682A43124E134FB04204D070
:102D8000B84202D0114DA84206D10825AA43CD6809
:102D90001543042295432A46B04204D0B84202D0DB
:102DA0000A4DA84208D1FF250135AB436D00AB4366
:102DB0004D691D438B692B434360846149684163BE
:102DC0000262F0BD002C0140004401400048014077
:102DD000F0B5026A10239A430262046A436882696A
:102DE00007252D03AA4303252D02AA430D682D02B2
:102DF0001543202294438A6812012243114EB042A7
:102E000007D180271446BC43CA68120122434024DC
:102E1000A243B04205D00C4CA04202D00B4CA042C1
:102E20000AD10124A402A3436400A3434C69A40073
:102E30001C438B699B002343436085614968816320
:102E40000262F0BD002C01400044014000480140F6
:102E5000F0B5026AFF2301339A430262046A4368B1
:102E6000C2697025AA43920892000D681543012299
:102E7000520294438A6812022243124EB04207D192
:102E8000C7141446BC43CA68120222430415A24365
:102E9000B04205D00C4CA04202D00C4CA0420AD14A
:102EA00001242403A3436400A3434C6924011C436D
:102EB0008B691B0123434360C5614968C16302629A
:102EC000F0BD0000002C01400044014000480140DA
:102ED00070B5026A01231B039A430262046A4268C6
:102EE000C36907252D03AB4303252D02AB430D68B2
:102EF0002D021D4301235B039C438B681E03264365
:102F00000A4B984205D00A4B984202D0094B98428E
:102F100006D10124A4031346A3434A6992011A432C
:102F20004260C56149680164066270BD002C0140C1
:102F3000004401400048014008B51548C26B022119
:102F40000A43C263C06B08400090134811490160F6
:102F50001249C16009214160002101618160416124
:102F60008161002211461020FEF7AEFF1020FEF70F
:102F70009FFF0948FEF7DEFF002801D0FEF786FE1E
:102F80000548FEF7F3FF002801D0FEF77FFE08BDDD
:102F90000010024000040040D80100207F0C000017
:102FA00010B5018C490612D501684A6901231B033B
:102FB000446A9A4322434A61416A994207D10168AF
:102FC0004A6903235B03806A9A4302434A6110BD46
:102FD00010B5406A002141874186FFF7C1F910BD55
:102FE0000168CA68FF2321339A43CA6001684030F0
:102FF0004A69520852004A6120218171704710B518
:103000000168CA6840239A43CA60202245210A54B5
:10301000FFF7D6FA002010BD70B5014640310A46D0
:103020008979222901D0022070BD012381681B0308
:10303000994202D1016900290DD001684B68416BAA
:103040004C1C44630B70418F491E0904090C4187D5
:103050000BD0002070BD416B03685B68DB05DB0DA6
:103060000B80416B891C4163EDE70168CC6820232C
:103070009C43CC600168CC68DD00AC43CC60016847
:103080004C69640864004C619371FFF72BFA0020CF
:1030900070BD000070B5044620680169012252032A
:1030A0009143E26811430161A168206901436069AD
:1030B00001432068C268294B1A400A43C260E16993
:1030C000206842690123DB029A430A434261206877
:1030D0004169032212029143A26911434161E069EF
:1030E00098421DD1FEF7FAFE61681922490050434B
:1030F000FDF7CCF905466421FDF7C8F90601642106
:103100004843281AC0003230FDF7C0F9F8210140C9
:10311000490040077118400F08182168886070BD89
:10312000FEF7DCFE6168192289005043FDF7AEF915
:1031300005466421FDF7AAF9060164214843281ACF
:1031400000013230FDF7A2F9F021014000077118AB
:10315000000F08182168886070BD0000F3E9FFFFC8
:103160004521095C212901D0022070470122816894
:103170001203914202D1016900290DD0C16A02688F
:1031800009785160C16A491CC162418E491E090417
:10319000090C41860AD013E0C16A02680988C90592
:1031A000C90D5160C16A891CC162EEE70168CA6835
:1031B00080239A43CA600068C16840221143C160FD
:1031C00000207047FFB581B005460E4617460A9CA1
:1031D0001DE0601C1BD0002C05D0FEF723FE0499D7
:1031E000401AA04213D92868C168FF22A132914336
:1031F000C160286840354169490849004161202083
:103200006871A87100202871032005B0F0BD2868FE
:1032100001683046884304D00020B842D9D000204D
:10322000F3E70120F9E7000010B50248FFF79AF82C
:1032300010BD0000400100204900CA0202431000F6
:1032400000D004204A0D01D001221043044A490D48
:10325000914201D102210843012800D10520704785
:10326000FF0700008307FF22DB0E9A408907090E43
:103270009940002808DB830809489B001818036858
:1032800093430B43036070470007000F083883081F
:1032900004489B001818C36993430B43C3617047EC
:1032A00000E400E000ED00E0F8B504464F1EC80061
:1032B0000838211815461E46086849683A4606230C
:1032C0009A4310D02A463346FDF7CAFD3A46D2004B
:1032D000083AA3181A687F1E5B68FDF741FB0622B7
:1032E0003B469343EED1022F23D0042F11D0062F5B
:1032F0002FD12A463346FDF7B3FDE36AA26AFDF7F4
:103300002FFB2A463346FDF7ABFD636A226AFDF7C1
:1033100027FB2A463346FDF7A3FDE369A269FDF7C3
:103320001FFB2A463346FDF79BFD63692269FDF7C3
:1033300017FB2A463346FDF793FDE368A268FDF7C5
:103340000FFB2A463346FDF78BFD63682268FDF7C5
:1033500007FBF8BD10B50122FDF7A6FE10BD10B5A4
:10336000FDF7FEFA10BD0000034A10B5002011075A
:10337000FDF79AFE10BD000001FDFFFF30380A285E
:1033800001D201207047002070477047F0B589B026
:1033900004460D464800069172494008884215DBF4
:1033A0007149884203DC884207D1002C05D02046B1
:1033B0002946FFF7CFFF09B0F0BD6C48002D02DDB4
:1033C0006B4909B0F0BD6B4909B0F0BD6A4988424C
:1033D00011DA6A4988420BDA20462946FFF72CFFAA
:1033E000042801D1FFF7C0FF2046294609B0F0BDEF
:1033F0000026F6435DE06D0061496D08884232DACF
:103400006049884219DA0026012332469B0720468C
:103410002946FDF7A5FA07460191012220462946D3
:10342000FDF742FE0022584BFDF7A7FA3A46019BF2
:10343000FDF7C6FA04460D463BE001260022524B3A
:1034400020462946FDF78CFA0746009100224E4B94
:1034500020462946FDF791FA3A46009BFDF7B0FA5F
:1034600004460D4625E04949884219DA0226002221
:10347000474B20462946FDF7F3FC0022424BFDF75F
:103480006FFA074602910022414B20462946FDF77C
:1034900074FA3A46029BFDF793FA04460D4608E09B
:1034A000032622462B4600203A49FDF789FA0446B6
:1034B0000D4622462B4610461946FDF7D1FC07461D
:1034C0000B4602460191FDF7CBFC024602903248C2
:1034D0000B46039106217844FFF7E6FE3A46019B2E
:1034E000FDF7BEFC00902D48019105217844039B17
:1034F000029AFFF7D9FE039B029AFDF7B1FC024640
:103500000B4601990098002E0BDAFDF729FA2246A6
:103510002B46FDF7A5FC22462B46FDF739FA09B0EC
:10352000F0BDFDF71DFA22462B46FDF799FC1C4A1B
:10353000F6007A4493191A685B68FDF71EFA224672
:103540002B46FDF71AFA174A7A4493191A685B68F2
:10355000FDF71EFA069A002AE1DA0122D20751404D
:1035600009B0F0BD000010440000F07F182D445455
:10357000FB21F93FFB21F9BF0000DC3F0000203EAA
:103580000000F33F0000E63F0000F03F00800340F2
:103590000000F83F0000F0BF060B0000C80A000062
:1035A000620A00002C0A0000F0B51FB4039A029DC5
:1035B00053006E422E439446F40F5B084A00574E68
:1035C00052081C438E46B44205D847420743FC0FBD
:1035D0001443B44205D92A466346FFF7C0FE05B03E
:1035E000F0BD4F4E66442E430AD0CC0F6646B61748
:1035F00002273E40264304464A4F144304D00BE0C2
:10360000FFF7C4FE05B0F0BD002EFBD0012EF9D0AF
:10361000022E32D0032E34D01C462C430BD03F4C0C
:10362000A34216D1A2420AD1012189078B438A43C2
:10363000114603930DE0704600280FDB25E03A4D5C
:103640007D44002E0ED0012E10D0022E15D0032E58
:1036500017D0A2421DD17046002816DA31483349EE
:1036600005B0F0BD6968286805B0F0BD0122696841
:10367000D2072868514005B0F0BD38462C4905B046
:10368000F0BD38462B4905B0F0BD26482A4905B0A3
:10369000F0BDD21A12153C2A02DD224D264C12E052
:1036A0006346002B05DA3C23DA4202DA00252C4679
:1036B00009E0039B029AFDF783F949004908FFF7E7
:1036C00065FE05460C46002E12D0012E0DD01B4A79
:1036D0001B4B022E2846214618D0FDF74EF93A46DC
:1036E000134BFDF74AF905B0F0BD0120C007444077
:1036F000002213462846214600F03AFA02D1022061
:10370000FDF737FE2846214605B0F0BDFDF735F937
:103710003A46074BFDF73CF905B0F0BD0000F07FDD
:10372000000010C0182D4454CC090000FB21F9BF43
:10373000FB210940FB2109C0FB21F93F075C143341
:1037400026A6A13CF0B585B0002004900390002788
:1037500000266A4601A902A8FFF7D3F869460820A7
:10376000085EFDF772FB0022294BFDF729F904469C
:103770000D460498FDF7C8FC22462B46FDF7F0F8ED
:10378000FCF734FF049069460420085EFDF75DFBFA
:1037900000221F4BFDF714F904460D460398FDF770
:1037A000B3FC22462B46FDF7DBF8FCF71FFF039026
:1037B00069460020085EFDF748FB0022144BFDF728
:1037C000FFF804460D463846FDF79EFC22462B4680
:1037D000FDF7C6F8FCF70AFF0746761C7D20C000FF
:1037E0008642B6DB0B4C04982146FDF7B7FC0A492C
:1037F000086021460398FDF7B1FC0849086021469E
:103800003846FDF7ABFC0649086005B0F0BD000086
:103810000060504000007A44CC000020D00000201E
:10382000D400002013B57D23DB0001226946024845
:10383000FEF759FE00981CBD8C010020FEF700FB2E
:10384000FFF738F9FDF7D2FFFEF7DEFEFFF7A0F82D
:10385000FFF772FBFFF776FFFEF75CF9FEF734F82F
:10386000FDF770FF014605A0FCF7B4FCFDF758FF1B
:10387000014607A0FCF7AEFCF8E700000D0A424D38
:10388000503238302049443A3078253032780000C0
:103890000D0A507265737375726520256C640000A3
:1038A000F0B589B0914A92499248FFF70BF8FFF7BB
:1038B00047F8FDF74DFD90490860904A90499148BE
:1038C000FFF71FF88B490020085EFDF7BEFA0D25B3
:1038D000ED432A46FDF7E8FBFCF788FE8A4F0446D5
:1038E000386083490020085EFDF7AFFA2A46FDF7ED
:1038F000DBFBFCF77BFE854E306008907B490020A7
:10390000085EFDF7A2FA2A46FDF7CEFBFCF76EFE35
:103910007F4D286007902046FDF7D0FC002800DA94
:103920004042FDF715FD079900F054F9FDF7ECFB57
:1039300004460D460898FDF7E7FB22462B46FFF7A5
:1039400033FE0022734BFDF78BFA0022D243FDF7C2
:10395000ABFB714A714BFDF733F8FCF747FE70493A
:1039600008603068FDF7AAFC002800DA4042FDF745
:10397000EFFC6749096800F02DF9FDF7C5FB044627
:103980000D463868FDF7C0FB22462B46FFF70CFEBC
:103990000022604BFDF764FA0022624BFDF760FAEB
:1039A0005D4A5E4BFDF70CF8FCF720FE5E490646CB
:1039B000086054490020085EFDF747FA5B4F00227B
:1039C0003B46FCF7FDFFFCF711FE04464C49002086
:1039D000085EFDF73AFA00223B46FCF7F1FFFCF7E0
:1039E00005FE054645490020085EFDF72EFA002237
:1039F0003B46FCF7E5FFFCF7F9FD07464C4801683C
:103A0000204600F085F94B49086006904A48016855
:103A1000284600F07DF9494908600590484801684A
:103A2000384600F075F9474905460860464C069847
:103A3000E168049100F014F9444F396800F0CAF8C5
:103A400038600499059800F00BF9414F396800F08F
:103A5000C1F838602846049900F002F93D4D296804
:103A600000F0B8F8286005463B4800680390A1685C
:103A7000401AFDF7F2F9394A394BFDF7F1F9FCF735
:103A8000B5FD0746E060264801686068029000F0D6
:103A9000E7F800903946069800F0E2F831490968E5
:103AA00000F098F82168019100F0DAF8009900F030
:103AB00091F82C4908603146029800F0D1F8009046
:103AC0003946059800F0CCF8274E316800F082F8AE
:103AD000019900F0C5F8009900F07CF830602348A7
:103AE00005600398A06009B0F0BD0000C40000208C
:103AF000C2000020C0000020D8000020CA00002022
:103B0000C8000020C6000020DC000020E0000020EB
:103B1000E400002000807640182D4454FB21094029
:103B2000000100200000E0BF0401002000605040C0
:103B3000CC000020E8000020D0000020EC00002095
:103B4000D4000020F000002018010020F400002024
:103B5000F8000020FC00002014010020FCA9F1D294
:103B60004D62503F080100200C0100201001002090
:103B700070B501250C002D051C4310D4EC4206D471
:103B8000AC420AD4994200D070BD904270BDE94267
:103B900017D4EB4215D4994270BD894270BDEC42F6
:103BA00006D5AC42F9D58B4200D070BD824270BDC3
:103BB0006D004C00EC4204D25C00EC4201D28B421E
:103BC00070BD034C30B4FDF77BFC30BC70BD00BF52
:103BD0001900120470B501250400ED074C4020D4F3
:103BE000441A01D2001B0919C60D4B00F2B2FF2A7C
:103BF00029D01B0E2CD000020C02D31A2C43DC401F
:103C00002843051910D2280A02D3401C6D0611D092
:103C1000761EF6058019FF2A00DA70BDC00DC005BA
:103C200070BD694000F07AF801200543C541521C7F
:103C3000761CE8E764089C40C90161408900E7D12F
:103C40000124A043E4E71B0E440200D0034870BDEA
:103C5000002AFCD1C00FC00770BD00BF0000C07FAC
:103C600070B5420064414B005C41120E39D01B0E0E
:103C700038D0FF2A3CD0FF2B3AD040024902400AFC
:103C8000490A060045184E43000A090AD21848435B
:103C9000ED017F3A0104731A4019190C4318990F6A
:103CA00004D001215B0849075B1A521CD80904D3D0
:103CB000401CF50301D19D0607D0FF2A08D2D50587
:103CC00006D0E4072043401970BD0125A843F4E75E
:103CD000002A01DCE00770BD2402FF202043C0055C
:103CE00070BD1B0EFF2A03D0FF2B01D0E00770BD73
:103CF000FF2645003606B54206D84D00B54203D82A
:103D0000D218FF2A00D0E7E7004870BD0000C07F4E
:103D100070B501250400ED074C4022D4441A02D2AC
:103D20006C40001B0919C60D4B00F2B2FF2A4BD0A4
:103D30001B0E50D000020C02D31A2C43DC40A843C7
:103D4000051B05D5AD0019D36D08761E521E37D060
:103D5000F605280A01D2801970BD70416D0603D0A6
:103D600070BD6940FFF73CFF9C400902614049007B
:103D700001D0401E70BD0124A04370BD6D081DD050
:103D800001202B0C01D12D0410302B0E01D12D025E
:103D900008302B0F01D12D01001DAB0F01D1AD005B
:103DA000801CEB0F01D16D00401C6D00361A121AF9
:103DB000680AF5054019012A02DB70BD002070BDBC
:103DC000C036300AC00770BD1B0E440201D1FF2B64
:103DD00000D1024870BD002AF0D070BD0000C07F45
:103DE00001000000010000000000000000000000D1
:103DF00000000000010000000000000000000000C2
:103E000000000000000000000500000001000000AC
:103E100000000000000000000000000001000000A1
:103E20000100000000000000000000000000000091
:103E30000100000000000000000000000000000081
:103E4000000000000300000001000000000000006E
:103E50000000000000000000000000000000000062
:103E6000000000000000000001000000020000004F
:103E7000030000000400000030313233343536379F
:103E8000383941424344454640305800303132339E
:103E9000343536373839616263646566403078009E
:103EA0000400000800000000000000020001000003
:103EB0001080807F7E7D7C7B7A79787776767574CA
:103EC00073727171706F6E6E6D6C6C6B6A6A69681B
:103ED00068676666656464636362616160605F5FB2
:103EE0005E5E5D5D5C5C5B5B5A5A5959585857572A
:103EF0005656555555545453535252525151505091
:103F0000504F4F4F4E4E4D4D4D4C4C4C4B4B4B4AE2
:103F10004A4A494949484848474747474646464527
:103F20004545444444444343434342424242414161
:103F3000418182838485868788898B8C8D8E8F9141
:103F40009293959697999A9C9D9FA0A2A3A5A7A8A6
:103F5000AAACAEB0B2B3B5B7B9BCBEC0C2C5C7C9D2
:103F6000CCCED1D4D7D9DCDFE2E6E9ECF0F3F7FA36
:103F7000FE000000000000004FBB610567ACDD3FA4
:103F8000182D4454FB21E93F9BF681D20B73EF3F80
:103F9000182D4454FB21F93FE2652F227F2B7A3CF8
:103FA000075C143326A6813CBDCBF07A8807703CB1
:103FB000075C143326A6913CC4EB98999999C9BF24
:103FC000711623FEC671BCBF6D9A74AFF2B0B3BF59
:103FD0009AFDDE522DDEADBF2F6C6A2C44B4A2BF19
:103FE0000D5555555555D53FFF8300922449C23F85
:103FF0006E204CC5CD45B73F513DD0A0660DB13FB9
:10400000EB0D76244B7BA93F11DA22E33AAD903FCA
:104010000000000000000000384000080000002000
:1040200040010000461600084840000840010020FA
:10403000500700000401000801FF012F461802008C
:084040002004920114127A0021
:04000005080000C12E
:00000001FF
